:020000000C945E
:100002003C000C9400000C9400000C9400000C9432
:1000120000000C9400000C9400000C9400000C945E
:1000220000000C9400000C9400000C946C000C94E2
:1000320000000C9400000C9400000C9400000C943E
:1000420000000C9400000C9400000C9400000C942E
:1000520000001027E80364000A00010000100001FC
:100062001000010000000000010002006600020012
:10007200040068000000F894EE27ECBBF1E0FBBF3F
:10008200EBBFE5BFF8E1F1BDE1BD8DE0A2E0BB272A
:10009200ED938A95E9F780E094E0A0E6ED9301976D
:1000A200E9F7EAE6F0E085919591009761F0A59174
:1000B200B59105901590BF01F00105900D92019741
:1000C200E1F7FB01F0CFEFE5EDBFE4E0EEBFC0E604
:1000D200D1E00C9438010A921A92FA926A937A93B6
:1000E2008A939A93AA93BA93EA93FA93EFB7EA930D
:1000F2001A930A931BB10CB1E12FEC7189F4E72D2D
:100102007394F0E0E05AFE4F0083E8E0E71509F44B
:1001120077249394E8E0E91519F49924689420F877
:10012200013619F4E1E0F0E004C0023619F4E2E02D
:10013200F0E02F010E94720129F4C09B02C0C09816
:1001420001C0C09A083649F4C09B02C0C09801C0E1
:10015200C09A0E94720109F43BD0063721F40E9432
:10016200720109F410D009911991E991EFBFF99147
:10017200E991B991A9919991899179916991F990AE
:10018200199009901895EBB3EF7021F0EBB3E17081
:10019200E13029F40E947701D99ADA98DB98EBB31F
:1001A200EF70E23009F444C0EBB3EF70E43029F4AD
:1001B2000E947701D998DA98DB9AEBB3EF70E830B6
:1001C20031F40E947F01D89AD998DA98DB98089581
:1001D200EBB3E07F39F40E947F01DC98DD98DE9872
:1001E200DF9A0895EBB3E07FE03839F40E947F0193
:1001F200DC98DD9ADE98DF980895EBB3E07FE03279
:1002020031F40E947F01DC98DD98DE98DF9A089530
:10021200EBB3EF7021F0EBB3E170E13029F40E940F
:100222007701D99ADA98DB98EBB3EF70E23059F4A0
:10023200E8EEF3E0FA93EA930E948501D898D99800
:10024200DA9ADB980895EBB3EF70E43029F40E9458
:100252007701D998DA98DB9AEBB3EF70E83031F492
:100262000E947F01D89AD998DA98DB980895E0E045
:10027200EBBBEFEFEABBE0E0E8BBEFEFE7BBE0E0B0
:10028200E5BBE4BBE2BBE1BBE3BFE2BFECBFEFBD5A
:10029200EEBDEDBDECBDE7BDE6BDEBBDEABDE9BD22
:1002A200E8BDE2BDE5BDE4BDE3BDE5BFE4BFE9BF36
:1002B200EBB9E0E9EAB9E6E8E0BDE0E0E0BDE3E39E
:1002C200E9B9E0E8E8B9E0E0E0BFE6B9EDB9E6BFD8
:1002D2007894E2E0F0E0E415F50509F499DFF9CF4E
:1002E200FFCFE1E0F0E0E415F5050895E8EEF3E074
:1002F200FA93EA930E948501D8980895E8EEF3E014
:10030200FA93EA930C948501E991F991309639F0C8
:1003120080ED97E00197F1F7A8953197C9F7089515
:00000001FF
